:020000040000FA
:1000000001283A2005205C2001280D20132019200A
:100010001E20242029202E20080000308700522096
:100020000800071408000D2087003830880052208F
:1000300008000D200F308800522008000D200130EC
:10004000880052202E2008000D2006308800522003
:1000500008000D2040308800522008000D2080301C
:1000600088005220112008000D20C0308800522046
:1000700011200800492000308700003088008601E8
:1000800046200030870000308800080083120313E8
:100090000800831603130800831203170800831651
:1000A0000317080007155720071157200800A00B59
:1000B0005728A10B57280800861706131E20443026
:1000C0008B2041308B2052308B2053308B20483096
:1000D0008B2041308B204E308B2041308B203420C0
:1000E00041308B2072308B2069308B2079308B200F
:1000F00061308B2072308B2061308B2074308B20EC
:1001000068308B206E308B2061308B202E308B201E
:10011000861306170800880052200800A00B8E28BE
:06012000A10B8E2808006F
:04012600003400346D
:02400E003A3F37
:00000001FF
